:020000040800F2
:1000000000500020550D00088105000883050008F8
:100010008505000887050008890500080000000024
:100020000000000000000000000000008B05000838
:100030008D050008000000008F05000891050008EC
:100040009D0D00089D0D00089D0D00089D0D0008E8
:100050009D0D00089D0D00089D0D00089D0D0008D8
:100060009D0D00089D0D00089D0D00089D0D0008C8
:100070009D0D00089D0D00089D0D00089D0D0008B8
:100080009D0D00089D0D00089D0D0008E50300086A
:10009000110400089D0D00089D0D00089D0D00082D
:1000A0009D0D00089D0D00089D0D00089D0D000888
:1000B0009D0D00089D0D00089D0D00089D0D000878
:1000C0009D0D00089D0D00089D0D00089D0D000868
:1000D0009D0D00089D0D00089D0D00089D0D000858
:1000E0009D0D00089D0D00089D0D000800000000FA
:1000F0000000000000000000000000000000000000
:0C01000000000000000000005FF808F1A3
:10010C0010B5054C237833B9044B13B10448AFF345
:10011C0000800123237010BD680000200000000047
:10012C00801C000808B5034B1BB103490348AFF30F
:10013C00008008BD000000006C000020801C00083E
:10014C002D4A136843F4803313602B4B1B6813F454
:10015C00003FFAD0284B1A6842F080721A605A6835
:10016C0042F480325A605A6822F400325A605A685B
:10017C0022F400125A605A6842F480125A605A688B
:10018C0042F400225A605A6842F480225A605A683B
:10019C0042F002025A605A6822F001025A605A6810
:1001AC0022F080025A605A6822F040025A605A6863
:1001BC0022F020025A605A6822F010025A605A68E3
:1001CC0042F080025A605A6822F040025A605A6823
:1001DC0022F020025A605A6822F010025A609A6982
:1001EC0042F001029A619A6942F004029A61DA695A
:1001FC0042F00072DA61704700100240144B1A682A
:10020C0042F400221A601A6842F480121A60114AF1
:10021C00136843F0010313600E4B1B6813F0010FBE
:10022C00FAD00C4B1A6842F010021A605A6942F06C
:10023C0001025A615A6942F002025A61D969064AAE
:10024C000A40DA61D969054A0A43DA61704700BF8E
:10025C0000E100E00064004000FE80FC030041036C
:10026C00054A136823F001031360034B5B6813F01A
:10027C00010FFAD1704700BF00640040024AD369F5
:10028C0043F08043D361704700640040044B9B688B
:10029C0013F0806FFAD0034B01221A60704700BF35
:1002AC00006400408C0000201D4BD3F8B0210022CC
:1002BC004273D3F8B021520D0260D3F8B03113F071
:1002CC00020F2AD100238373154BD3F8B42102F00B
:1002DC000F020273D3F8B8210271D3F8B821120AB5
:1002EC004271D3F8B821120C8271D3F8B821120ED6
:1002FC00C271D3F8BC210272D3F8BC21120A42722B
:10030C00D3F8BC21120C8272D3F8BC21120EC2722B
:10031C00DA6842F02002DA60704701238373D3E776
:10032C0000640040214BB3F800C0BCF10D0F38D86D
:10033C00C1BB40051E4BD3F8002242F00102C3F8AA
:10034C000022D3F81C12012202FA0CF221EA02015B
:10035C00C3F81C12D3F80C121143C3F80C12D3F8C7
:10036C00041221EA0201C3F804120CF1480143F80B
:10037C00310003EBC1014860D3F8141221EA0201E9
:10038C00C3F81412D3F81C120A43C3F81C22D3F876
:10039C00002222F00102C3F800220CF10103034AEF
:1003AC0013807047C00040F00400C3E784000020B5
:1003BC0000640040064B074A5A60A3F500635A6874
:1003CC0022F400525A605A6822F480425A607047F4
:1003DC000008014044444B44084B9B6813F0010F48
:1003EC000BD0064B9A6842F001029A605A6922F0CF
:1003FC0001025A61024B01221A60704700640040EE
:10040C008C00002008B5064BDB6813F0030F00D1FD
:10041C0008BD0448FFF748FF034B01221A60F7E7B9
:10042C0000640040900000208800002082B00A4B3D
:10043C009A6942F020029A619A6902F020020092B5
:10044C00009A9A6942F004029A619B6903F00403D2
:10045C000193019B02B070470010024072B6FEE798
:10046C0000B591B02822002106A800F0AAFD0023B7
:10047C0001930293039304930593022306930122A1
:10048C000A9210220B920D9306A800F05FF970B936
:10049C000F230193022302930021039104910591F0
:1004AC0001A800F085FB20B911B05DF804FBFFF743
:1004BC00D5FFFFF7D3FF000000B583B000F08EF836
:1004CC00FFF73EFEFFF776FFFFF798FE4FF0404038
:1004DC00FFF7D4FE00212120FFF724FFFFF7C0FE19
:1004EC00FFF7D4FE00F020FC019001A90E4800F0AB
:1004FC0013FD0E4B33221A60002304E00B4A1A44FE
:10050C00012111710B44072BF8DD084B01221A73E2
:10051C0000225A739A73FFF7A3FFFFF787FF64203B
:10052C0000F080F8FBE700BF981C0008A00000203A
:10053C0082B00E4B9A6942F001029A619A6902F0FC
:10054C0001020092009ADA6942F08052DA61DB69AA
:10055C0003F080530193019B054A536823F0E06339
:10056C0043F00073536002B0704700BF00100240AC
:10057C0000000140FEE7FEE7FEE7FEE7FEE77047FE
:10058C007047704708B500F03BF808BD7047000095
:10059C0010B504460E4B1A784FF47A73B3FBF2F392
:1005AC000C4A1068B0FBF3F000F0A6F868B90F2CF9
:1005BC0001D901200AE0002221464FF0FF3000F063
:1005CC008BF8054B1C60002000E0012010BD00BF23
:1005DC0004000020000000200800002008B5074A95
:1005EC00136843F010031360032000F063F80F202E
:1005FC00FFF7CEFFFFF79CFF002008BD0020024054
:10060C00034A1168034B1B780B441360704700BFFF
:10061C00B000002004000020014B1868704700BF98
:10062C00B000002038B50446FFF7F6FF0546B4F1DC
:10063C00FF3F02D0044B1B781C44FFF7EDFF401B1F
:10064C00A042FAD338BD00BF04000020002808DB0C
:10065C000901C9B200F1604000F5614080F8001357
:10066C00704700F00F000901C9B2014B19547047D3
:10067C0014ED00E000B500F00700C0F1070CBCF170
:10068C00040F28BF4FF0040C031D062B0FD9C31EFB
:10069C004FF0FF3E0EFA0CF021EA000199400EFAE1
:1006AC0003FE22EA0E0241EA02005DF804FB00237D
:1006BC00EEE70000074AD36823F4E0631B041B0C2D
:1006CC00000200F4E060034343F0BF6343F40033E3
:1006DC00D360704700ED00E010B50446054BD868B8
:1006EC00C0F30220FFF7C6FF01462046FFF7AEFF1E
:1006FC0010BD00BF00ED00E00138B0F1807F0BD2DF
:10070C004FF0E0235861054AF02182F823100020B5
:10071C00986107221A6170470120704700ED00E0D4
:10072C0082B0084B1B68084AA2FB03235B0A00FB40
:10073C0003F3019300BF019B5A1E0192002BF9D1C8
:10074C0002B0704700000020D34D6210002800F06A
:10075C00F18170B582B00446036813F0010F2CD000
:10076C00994B5B6803F00C03042B1DD0964B5B6814
:10077C0003F00C03082B12D06368B3F5803F41D013
:10078C00002B55D103F1804303F504331A6822F48E
:10079C0080321A601A6822F480221A6037E08A4B81
:1007AC005B6813F4803FE7D0874B1B6813F4003F62
:1007BC0003D06368002B00F0BF81236813F0020F95
:1007CC0075D0814B5B6813F00C0F5FD07E4B5B6870
:1007DC0003F00C03082B54D02369002B00F08A8003
:1007EC007A4B01221A60FFF717FF0546764B1B6800
:1007FC0013F0020F75D1FFF70FFF401B0228F5D93C
:10080C0003209EE1704A136843F4803313606368DD
:10081C0043B3FFF701FF05466B4B1B6813F4003F16
:10082C00CBD1FFF7F9FE401B6428F5D9032088E1F2
:10083C00B3F5A02F09D0644B1A6822F480321A60E9
:10084C001A6822F480221A60E1E703F18043A3F5D1
:10085C003C331A6842F480221A601A6842F48032DF
:10086C001A60D4E7FFF7D8FE0546574B1B6813F404
:10087C00003FA2D0FFF7D0FE401B6428F5D903201F
:10088C005FE1514B5B6813F4803FA5D14E4B1B6865
:10089C0013F0020F03D02369012B40F04F814A4A19
:1008AC00136823F0F803616943EAC10313602368FA
:1008BC0013F0080F33D0A369002B5CD0434B0122FB
:1008CC00C3F88024FFF7A8FE05463F4B5B6A13F084
:1008DC00020F21D1FFF7A0FE401B0228F5D90320FF
:1008EC002FE1394A136823F0F803616943EAC10325
:1008FC001360DCE7354B00221A60FFF78DFE0546CE
:10090C00314B1B6813F0020FD1D0FFF785FE401B53
:10091C000228F5D9032014E10120FFF701FF236819
:10092C0013F0040F00F09680274BDB6913F0805F07
:10093C0034D1254BDA6942F08052DA61DB6903F07D
:10094C0080530193019B0125214B1B6813F4807F7D
:10095C0026D0E368012B3DD0002B53D103F180430B
:10096C0003F504331A6A22F001021A621A6A22F0A1
:10097C0004021A6233E0154B0022C3F88024FFF7FF
:10098C004BFE0546104B5B6A13F0020FC7D0FFF706
:10099C0043FE401B0228F5D90320D2E00025D3E703
:1009AC000B4A136843F480731360FFF735FE064659
:1009BC00074B1B6813F4807FCBD1FFF72DFE801BF8
:1009CC006428F5D90320BCE000100240000042422C
:1009DC00007000405F4A136A43F001031362E3683E
:1009EC0033B3FFF719FE06465A4B1B6A13F0020F7E
:1009FC002FD1FFF711FE801B41F288339842F3D9B7
:100A0C0003209EE0052B09D0524B1A6A22F00102FA
:100A1C001A621A6A22F004021A62E0E74D4B1A6A53
:100A2C0042F004021A621A6A42F001021A62D6E714
:100A3C00FFF7F2FD0646474B1B6A13F0020F08D076
:100A4C00FFF7EAFD801B41F288339842F3D903206B
:100A5C0077E0E5B9E369002B72D03E4A526802F0A8
:100A6C000C02082A56D0022B17D03B4B00221A66D8
:100A7C00FFF7D2FD0446374B1B6813F0007F47D0BD
:100A8C00FFF7CAFD001B0228F5D9032059E0314AB3
:100A9C00D36923F08053D361DCE72F4B00221A6615
:100AAC00FFF7BAFD05462B4B1B6813F0007F06D0F1
:100ABC00FFF7B2FD401B0228F5D9032041E0236A61
:100ACC00B3F5803F1AD023494B6823F47413226A80
:100ADC00606A024313434B601F4B01221A66FFF7F7
:100AEC009BFD04461B4B1B6813F0007F0ED1FFF7D8
:100AFC0093FD001B0228F5D9032022E0154A536808
:100B0C0023F40033A1680B435360DCE7002018E0AA
:100B1C00002016E0012B16D00E4B5B6803F48031DD
:100B2C00226A914211D103F47013626A93420ED17E
:100B3C00002006E001207047012002E0012000E0C7
:100B4C00002002B070BD0120FBE70120F9E7012075
:100B5C00F7E700BF00100240000042420F4B5B68F9
:100B6C0003F00C02082A01D00D487047C3F38342EE
:100B7C000C49885C13F4803F0BD0084B5B68C3F3C3
:100B8C004043094AD35C064A02FB00F0B0FBF3F089
:100B9C007047064B03FB00F0704700BF001002408B
:100BAC0000127A00B81C0008B41C000800093D00B3
:100BBC00002800F0A08070B50D460446524B1B680F
:100BCC0003F007038B420BD24F4A136823F0070341
:100BDC000B431360136803F007038B4240F08D80C6
:100BEC00236813F0020F17D013F0040F04D0474AF8
:100BFC00536843F4E0635360236813F0080F04D088
:100C0C00424A536843F460535360404A536823F09C
:100C1C00F003A1680B435360236813F0010F31D02C
:100C2C006368012B20D0022B25D0384A126812F0B1
:100C3C00020F64D035494A6822F0030213434B601B
:100C4C00FFF7EAFC0646314B5B6803F00C03626865
:100C5C00B3EB820F16D0FFF7DFFC801B41F2883319
:100C6C009842F0D9032045E0284A126812F4003F5C
:100C7C00E0D101203EE0254A126812F0007FD9D164
:100C8C00012037E0204B1B6803F00703AB420AD965
:100C9C001D4A136823F007032B431360136803F0FA
:100CAC000703AB422DD1236813F0040F06D0174A6B
:100CBC00536823F4E063E1680B435360236813F03B
:100CCC00080F07D0114A536823F46053216943EA93
:100CDC00C1035360FFF742FF0C4B5B68C3F3031374
:100CEC000B4AD35CD8400B4B18600B4B1868FFF7C2
:100CFC004FFC002070BD012070470120FAE7012055
:100D0C00F8E70120F6E700BF002002400010024087
:100D1C00A41C00080000002008000020014B1868EB
:100D2C00704700BF0000002008B5FFF7F7FF044B29
:100D3C005B68C3F30223034AD35CD84008BD00BFF1
:100D4C00001002409C1C0008FFF720FC0B480C49CB
:100D5C000C4A002302E0D458C4500433C4188C420B
:100D6C00F9D3094A094C002301E013600432A24272
:100D7C00FBD300F075F9FFF79FFB704700000020D4
:100D8C0068000020041D00086800002004020020F8
:100D9C00FEE70000002310B50446C0E90033C0E9AB
:100DAC000433836081814366C281836119460822C2
:100DBC005C3000F006F90D4B246263620C4BA362AD
:100DCC000C4BE3620C4B23630C4B9C4206D003F19F
:100DDC006802944202D0D0339C4205D104F15800F1
:100DEC00BDE8104000F060B910BD00BF490F00080D
:100DFC006B0F0008A30F0008C70F0008B4000020F9
:100E0C00024A0349034800F069B800BF0C000020F7
:100E1C00491900081C00002041680C4B10B5994280
:100E2C00044601D000F08AFDA168094B994202D01A
:100E3C00204600F083FDE168064B994204D0204621
:100E4C00BDE8104000F07ABD10BD00BFB40000201A
:100E5C001C0100208401002010B50B4B0B4C0C4ADC
:100E6C0020461A6004210022FFF794FF04F1680069
:100E7C0001220921FFF78EFF04F1D0000222BDE808
:100E8C0010401221FFF786BFEC010020B4000020B7
:100E9C000D0E0008014800F008B900BFF501002054
:100EAC00014800F003B900BFF501002010B504465D
:100EBC00FFF7F0FF236A1BB1BDE81040FFF7F0BF4E
:100ECC00044B2362044B1B68002BF5D1FFF7C4FFC6
:100EDC00F2E700BF250E0008EC0100202DE9F843D5
:100EEC000746884614460026D4E90195B9F1010954
:100EFC0005D52468002CF7D13046BDE8F883AB89C2
:100F0C00012B07D9B5F90E30013303D029463846E9
:100F1C00C04706436835E9E70FB407B5064904AB8B
:100F2C00086853F8042B8168019300F0DFF903B0D3
:100F3C005DF804EB04B070471800002010B50C46A7
:100F4C00B1F90E1000F068F80028ABBF636DA389EF
:100F5C001B1823F48053ACBF6365A38110BD2DE92E
:100F6C00F0411F468B890546DB050C46164605D518
:100F7C0002230022B1F90E1000F03CF8A38932468E
:100F8C0023F48053A38128463B46B4F90E10BDE8E8
:100F9C00F04100F053B810B50C46B1F90E1000F04A
:100FAC0029F8431CA38915BF606523F4805343F4CF
:100FBC008053A38118BFA38110BDB1F90E1000F0AE
:100FCC0009B803460244934200D1704703F8011B51
:100FDC00F9E7000038B50023054D044608462B60A0
:100FEC0000F00AFE431C02D12B6803B1236038BD0C
:100FFC00F001002038B50446084611460022054D84
:10100C002A601A4600F010FE431C02D12B6803B173
:10101C00236038BDF001002038B50446084611465F
:10102C000022054D2A601A4600F006FE431C02D130
:10103C002B6803B1236038BDF001002038B504469D
:10104C00084611460022054D2A601A4600F00AFE99
:10105C00431C02D12B6803B1236038BDF001002082
:10106C0070B500260C4D0D4C641BA410A64209D182
:10107C0000F000FE00260A4D0A4C641BA410A64288
:10108C0005D170BD55F8043B98470136EEE755F88D
:10109C00043B98470136F2E7FC1C0008FC1C0008D6
:1010AC00FC1C0008001D00087047704770470000CA
:1010BC0038B50546002940D051F8043C0C1F002BD4
:1010CC00B8BFE41800F0DEF81C4A136833B963604B
:1010DC0014602846BDE8384000F0DAB8A34208D9BD
:1010EC00206821188B4201BF19685B6809182160C0
:1010FC00EDE71A465B680BB1A342FAD91168501898
:10110C00A0420BD120680144501883421160E0D1F9
:10111C0018685B68084410605360DAE702D90C2346
:10112C002B60D6E7206821188B4201BF19685B68D9
:10113C000918216063605460CBE738BDFC010020C6
:10114C0070B50F4E0C463168054611B900F0B2FC73
:10115C0030602146284600F0ADFC431C03D14FF013
:10116C00FF34204670BDC41C24F00304A042F8D008
:10117C00211A284600F09EFC0130F2D1EFE700BFA7
:10118C00F80100202DE9F843CD1C25F003050835A6
:10119C000C2D38BF0C25002D064601DBA94204D9C5
:1011AC000C2333600020BDE8F883DFF8D48000F016
:1011BC0069F8D8F800301C4644BB29463046FFF786
:1011CC00BFFF431C044658D1D8F800402746002FD7
:1011DC0043D1002C4BD023683946304604EB03092D
:1011EC0000F068FC814542D1216830466D1A2946D1
:1011FC00FFF7A6FF01303AD023682B442360D8F8C0
:10120C0000305A6862BBC8F800700FE02268521BAD
:10121C0020D40B2A17D96119A342256018BF596035
:10122C00636808BFC8F8001062514B60304600F08C
:10123C002FF804F10B00231D20F00700C21A1CBF6D
:10124C001B1AA350AFE76268A3420CBFC8F800207A
:10125C005A60EBE723466468AEE73C467F68B6E726
:10126C001A465B68A342FBD100235360DEE70C23D4
:10127C003046336000F00CF894E70560D6E700BF09
:10128C00FC0100200148FFF710BF00BFF401002053
:10129C000148FFF70BBF00BFF4010020936810B4A6
:1012AC00013B002B936007DA9469A34201DB0A2906
:1012BC0002D110BC00F06ABB1368581C1060197086
:1012CC00084610BC7047F8B506460F461446D518AC
:1012DC00AC4201D1002007E03A46304614F8011B1D
:1012EC00FFF7DCFF431CF3D1F8BD00002DE9F04FF4
:1012FC000D461446984606469DB018B1036A0BB9C4
:10130C00FFF7D4FD6B6ED90705D4AB899A0502D4CF
:10131C00A86DFFF7CAFEAB891B0701D52B699BB9DA
:10132C002946304600F070FB70B16B6EDC0704D5BB
:10133C004FF0FF301DB0BDE8F08FAB899805F7D4A6
:10134C00A86DFFF7B3FEF3E70023099320238DF874
:10135C00293030234FF00109CDF80C80DFF8A8813B
:10136C008DF82A3023469A4613F8012B0AB1252A08
:10137C00F9D1BAEB040B0BD05B462246294630461A
:10138C00FFF7A1FF013000F0A780099A5A44099297
:10139C009AF80030002B00F09F8000234FF0FF32B2
:1013AC00CDE905230AF1010A049307938DF8533014
:1013BC001A935446052214F8011B534800F08AFB7B
:1013CC00049AD8B9D10644BF20238DF853301307A3
:1013DC0044BF2B238DF853309AF800302A2B15D0AC
:1013EC00544600204FF00A0C079A214611F8013B95
:1013FC00303B092B4BD9B0B1079214E0A0EB08039A
:10140C0009FA03F31343A2460493D2E7039B191D75
:10141C001B680391002BBBBF5B4242F00202079397
:10142C000793B8BF049223782E2B0AD163782A2B0A
:10143C0032D1039B02341A1D1B68039243EAE373F7
:10144C000593DFF8C8A003225046217800F042FB38
:10145C0038B14022049BA0EB0A00824013430134B4
:10146C00049314F8011B062229488DF8281000F06B
:10147C0031FB00283FD0274B1BBB039B073323F0CA
:10148C00070308330393099B3B4409936AE70C4613
:10149C0001200CFB0232A8E700234FF00A0C19467E
:1014AC0001340593204610F8012B303A092A03D950
:1014BC00002BC6D00591C4E7044601230CFB012187
:1014CC00F0E703AB00932A463046134B04A9AFF365
:1014DC0000800746781CD6D16B6ED90705D4AB8932
:1014EC009A0502D4A86DFFF7E1FDAB895B063FF5C9
:1014FC001FAF09981EE703AB00932A463046064BF4
:10150C0004A900F07DF8E4E7C81C0008CE1C000814
:10151C00D21C000800000000D31200082DE9F0478F
:10152C00164698468A680B6907469342B8BF13461D
:10153C00336091F843200C46DDF820900AB101335A
:10154C0033602368990642BF3368023333602568E1
:10155C0015F0060506D104F1190AE36832689B1AE6
:10156C00AB422BDC94F843302268003B18BF0123BC
:10157C00920630D44146384604F14302C847013044
:10158C0023D02368226903F00603042B14BF002523
:10159C0033684FF0000608BFE56804F11A0408BF71
:1015AC00ED1A54F8123C08BF25EAE5759342C4BF06
:1015BC009B1AED18B5421AD1002008E001235246BF
:1015CC0041463846C847013003D14FF0FF30BDE8E3
:1015DC00F0870135C1E73020E11881F843005A1C2F
:1015EC0094F845102244023382F84310C2E70123D9
:1015FC00224641463846C8470130E6D00136D9E785
:10160C002DE9FF470F7E9146782F80460C469A466F
:10161C000C9E01F1430207D8622F0AD8002F00F06C
:10162C00D180582F00F0B88004F1420684F8427043
:10163C003AE0A7F16303152BF6D801A151F823F07A
:10164C00A5160008B916000835160008351600084E
:10165C003516000835160008B916000835160008AE
:10166C00351600083516000835160008B71700089F
:10167C00E316000871170008351600083516000827
:10168C00D917000835160008E316000835160008AF
:10169C00351600087917000833681A1D1B6832606C
:1016AC0004F1420684F8423001239CE03368206840
:1016BC00191D3160060601D51D6803E04506FBD5F2
:1016CC00B3F90050002D03DA2D236D4284F843301A
:1016DC000A23584811E021683368080653F8045B64
:1016EC0002D4490648BFADB26F2F336014BF0A2332
:1016FC0008235048002184F843106668002EA66029
:10170C0005DB21682E4321F0040121604BD01646E5
:10171C00B5FBF3F103FB1157C75D06F8017D2F46AE
:10172C00BB420D46F4D9082B0BD12368DF0708D533
:10173C00236961689942DEBF302306F8013C06F14B
:10174C00FF36921B22614B4621464046CDF800A045
:10175C0003AAFFF7E3FE01304AD14FF0FF3004B08B
:10176C00BDE8F087236843F02003236078273248D4
:10177C0084F84570236831681F0651F8045B02D465
:10178C005F0648BFADB23160D90744BF43F02003B8
:10179C0023601DB11023ADE72648E9E7236823F049
:1017AC0020032360F6E71646BDE733682568181D4D
:1017BC00616930602E061B6801D5196002E068066D
:1017CC00FBD51980002316462361BCE73368002142
:1017DC001A1D32601E686268304600F07BF908B151
:1017EC00801B606063682361002384F84330AAE7A0
:1017FC003246494640462369D0470130ADD0236874
:10180C009B0713D4E068039B9842B8BF1846A6E721
:10181C000123324649464046D04701309DD0013520
:10182C00E36803995B1AAB42F2DCEBE7002504F1A9
:10183C001906F5E7D91C0008EA1C0008B1F90C20C0
:10184C00F8B5160705460C4654D44B68002B02DC41
:10185C000B6C002B48DDE66A002E45D0002312F4F9
:10186C0080522F68216A2B6030D0626DA389590792
:10187C0005D56368D21A636B0BB1236CD21A0023A3
:10188C002846E66A216AB047431CA38906D1296819
:10189C001D292BD8284ACA40D60727D500226260BA
:1018AC002269D904226004D5421C01D12B6803B9EA
:1018BC006065616B2F60B9B104F14403994202D0A9
:1018CC002846FFF7F5FB002363630DE00123284650
:1018DC00B0470246501CC9D12B68002BC6D01D2B1B
:1018EC0001D0162B1DD12F60002021E043F04003C6
:1018FC001BB21AE00F69002FF6D0930718BF002314
:10190C000E6808BF4B69F61B0F608B60002EEBDD79
:10191C0033463A462846216AD4F828C0E0470028C6
:10192C0007DCB4F90C3043F040034FF0FF30A381D7
:10193C00F8BD0744361AE9E70100402038B50B69B9
:10194C0005460C4613B90025284638BD18B1036A64
:10195C000BB9FFF7ABFAB4F90C30002BF3D0626E75
:10196C00D00704D4990502D4A06DFFF79EFB28463E
:10197C002146FFF763FF636E0546DA07E4D4A389BB
:10198C009B05E1D4A06DFFF791FBDDE7F8B50E46A2
:10199C001446054618B1036A0BB9FFF787FAA36919
:1019AC00A360A3891A0701D5236943B921462846A8
:1019BC0000F02AF818B14FF0FF373846F8BD23680D
:1019CC002269F6B2981A63693746834205DC2146D0
:1019DC002846FFF7B3FF0028EDD1A368013BA360B5
:1019EC0023685A1C22601E706269431C9A4204D000
:1019FC00A389DB07E1D50A2EDFD121462846FFF764
:101A0C009DFF0028D9D0D6E738B5294B0546186874
:101A1C000C4618B1036A0BB9FFF748FAB4F90C304D
:101A2C00190722D4DA0607D409222A6043F04003AE
:101A3C004FF0FF30A38133E0580712D5616B41B1F1
:101A4C0004F14403994202D02846FFF731FB0023EE
:101A5C006363A38923F02403A381002363602369B8
:101A6C002360A38943F00803A38123694BB9A3899D
:101A7C0003F42073B3F5007F03D02146284600F011
:101A8C005CF8B4F90C3013F001020AD00022A26009
:101A9C0062695242A261226942B913F08000C5D139
:101AAC0038BD990758BF6269A260F4E70020F7E7D8
:101ABC001800002038B50023054D044608462B605D
:101ACC0000F0C2F8431C02D12B6803B1236038BD6F
:101ADC00F0010020034610B5C9B2024493421846E7
:101AEC0001D1002003E0047801338C42F6D110BD03
:101AFC0070B50C46B1F90E10154600291E4696B06D
:101B0C000CDAA389002113F0800F14BF40234FF48B
:101B1C008063002031602B6016B070BD6A4600F007
:101B2C0049F80028EDDB019901F47041A1F500534F
:101B3C00594259414FF48063EBE78B89F7B59D0708
:101B4C0006460C4607D504F14703236023610123A5
:101B5C00636103B0F0BD6A4601ABFFF7C9FF009F9C
:101B6C00054639463046FFF70DFB48B9B4F90C3041
:101B7C009A05EED423F0030343F00203A381E2E7BA
:101B8C00A389C4E9040743F08003A381019B20606F
:101B9C005BB13046B4F90E1000F01EF828B1A389E1
:101BAC0023F0030343F00103A381A3891D43A58103
:101BBC00CFE7000038B50023064D04460846114611
:101BCC002B6000F021F8431C02D12B6803B1236079
:101BDC0038BD00BFF001002038B50023054D044688
:101BEC0008462B6000F018F8431C02D12B6803B197
:101BFC00236038BDF00100205822024B4FF0FF301B
:101C0C001A607047F00100205822024B4FF0FF3051
:101C1C001A607047F00100205822024B00201A6015
:101C2C00704700BFF00100205822024B4FF0FF30EC
:101C3C001A607047F00100205822024B4FF0FF3021
:101C4C001A607047F0010020044A05491368002B04
:101C5C0008BF0B461844106018467047000200205D
:101C6C00080200205822024B4FF0FF301A607047D8
:101C7C00F0010020F8B500BFF8BC08BC9E467047C8
:0C1C8C00F8B500BFF8BC08BC9E467047CD
:101C980025640000000000000102030400000000A9
:101CA8000000000001020304060708090102000001
:101CB80002030405060708090A0B0C0D0E0F101085
:101CC800232D302B2000686C4C006566674546471D
:101CD80000303132333435363738394142434445A0
:101CE800460030313233343536373839616263640F
:041CF800656600001D
:041CFC0031010008AA
:041D00000D010008C9
:101D04000024F400010000001000000000000000A6
:101D140003000000B40000201C00002000000000AC
:101D2400B40000201C0100208401002000000000F9
:101D3400000000000000000000000000000000009F
:101D4400000000000000000000000000000000008F
:101D5400000000000000000000000000000000007F
:081D6400000000000000000077
:0400000508000D558D
:00000001FF
