:020000040800F2
:1000000000500020A90C00080105000803050008A5
:1000100005050008070500080905000800000000A4
:100020000000000000000000000000000B050008B8
:100030000D050008000000000F050008110500086C
:10004000F10C0008F10C0008F10C0008F10C00089C
:10005000F10C0008F10C0008F10C0008F10C00088C
:10006000F10C0008F10C0008F10C0008F10C00087C
:10007000F10C0008F10C0008F10C0008F10C00086C
:10008000F10C0008F10C0008F10C0008F10C00085C
:10009000F10C0008F10C0008F10C0008F10C00084C
:1000A000F10C0008F10C0008F10C0008F10C00083C
:1000B000F10C0008F10C0008F10C0008F10C00082C
:1000C000F10C0008F10C0008F10C0008F10C00081C
:1000D000F10C0008F10C0008F10C0008F10C00080C
:1000E000F10C0008F10C0008F10C00080000000001
:1000F0000000000000000000000000000000000000
:0C01000000000000000000005FF808F1A3
:10010C0010B5054C237833B9044B13B10448AFF345
:10011C0000800123237010BD0C00002000000000A3
:10012C004C0D000808B5034B1BB103490348AFF352
:10013C00008008BD00000000100000204C0D0008DD
:10014C00064B9A6942F001029A619A6942F00402E4
:10015C009A61DA6942F00072DA617047001002406D
:10016C000C4B1A6842F001021A601A6842F0100235
:10017C001A605A6942F001025A615A6942F002024D
:10018C005A61D969044A0A40DA61D969034A0A43B7
:10019C00DA6170470064004000FE80FC1F014B03D5
:1001AC00054A136823F001031360034B5B6813F0DB
:1001BC00010FFAD1704700BF00640040054BDA69AB
:1001CC0022F04042DA61DA6900F040400243DA6121
:1001DC00704700BF00640040044B9B6813F0806FB5
:1001EC00FAD0034B01221A60704700BF0064004034
:1001FC002C0000202D4B0022C3F88021437B002BC8
:10020C0041D12A4AD2F88031016843EA4153C2F8FD
:10021C008031837B002B41D1244BD3F88021C3F850
:10022C008021C3798279120442EA0362437942EA5B
:10023C00032203791A431D4BC3F88821C17A827AB1
:10024C00120442EA0162417A42EA0122017A0A432B
:10025C00C3F88C21D3F8842122F00F02C3F8842137
:10026C00D3F88421017B01F00F010A43C3F88421E8
:10027C005A6942F001025A61D3F8802142F001021E
:10028C00C3F880217047094AD2F88031016843EAEB
:10029C00C10343F00403C2F88031BAE7034AD2F831
:1002AC00803143F00203C2F88031BAE700640040A9
:1002BC00214BB3F800C0BCF10D0F37D8B9BB4005CA
:1002CC001E4BD3F8002242F00102C3F80022D3F8EF
:1002DC001C12012202FA0CF221EA0201C3F81C12D0
:1002EC00D3F80C121143C3F80C12D3F804121143B7
:1002FC00C3F804120CF1480143F8310003EBC101BF
:10030C004860D3F8141221EA0201C3F81412D3F88E
:10031C001C120A43C3F81C22D3F8002222F001025B
:10032C00C3F800220CF10103034A13807047C0008C
:10033C0040F00400C4E700BF280000200064004027
:10034C00154B5A6822F480525A605A6822F40052B3
:10035C005A605A6842F480425A606FF400425A6004
:10036C005A6842F480325A605A6842F400325A6039
:10037C005A6822F480225A605A6842F400225A6069
:10038C00A3F500635A6822F400525A605A6822F4AA
:10039C0080425A60704700BF0008014082B00A4B8F
:1003AC009A6942F020029A619A6902F02002009246
:1003BC00009A9A6942F004029A619B6903F0040363
:1003CC000193019B02B070470010024072B6FEE729
:1003DC0000B591B02822002106A800F084FC00236F
:1003EC000193029303930493059302230693012232
:1003FC000A9210220B920D934FF4E0130F9306A860
:10040C0000F064F978B90F230193022302930023BF
:10041C00039304930593012101A800F089FB20B9F3
:10042C0011B05DF804FBFFF7D1FFFFF7CFFF000021
:10043C0008B500F093F8FFF783FEFFF781FFFFF795
:10044C008FFE4FF04040FFF7B9FE00212120FFF74F
:10045C002FFFFFF7A5FEFFF7BFFE124B21221A60FC
:10046C00002304E00F4A1A44012111710B44072B9D
:10047C00F8DD0C4B01221A7300225A739A73FFF7A2
:10048C00A7FFFFF78BFF08E0074B00221A60054817
:10049C00FFF7B0FE054800F085F8034B1B68002BF6
:1004AC00F2D1F7E7300000202C000020A0860100DC
:1004BC0082B00E4B9A6942F001029A619A6902F07D
:1004CC0001020092009ADA6942F08052DA61DB692B
:1004DC0003F080530193019B054A536823F0E063BA
:1004EC0043F00073536002B0704700BF001002402D
:1004FC0000000140FEE7FEE7FEE7FEE7FEE770477F
:10050C007047704708B500F03BF808BD7047000015
:10051C0010B504460E4B1A784FF47A73B3FBF2F312
:10052C000C4A1068B0FBF3F000F0A6F868B90F2C79
:10053C0001D901200AE0002221464FF0FF3000F0E3
:10054C008BF8054B1C60002000E0012010BD00BFA3
:10055C0004000020000000200800002008B5074A15
:10056C00136843F010031360032000F063F80F20AE
:10057C00FFF7CEFFFFF79CFF002008BD00200240D4
:10058C00034A1168034B1B780B441360704700BF80
:10059C004000002004000020014B1868704700BF89
:1005AC004000002038B50446FFF7F6FF0546B4F1CD
:1005BC00FF3F02D0044B1B781C44FFF7EDFF401BA0
:1005CC00A042FAD338BD00BF04000020002808DB8D
:1005DC000901C9B200F1604000F5614080F80013D8
:1005EC00704700F00F000901C9B2014B1954704754
:1005FC0014ED00E000B500F00700C0F1070CBCF1F1
:10060C00040F28BF4FF0040C031D062B0FD9C31E7B
:10061C004FF0FF3E0EFA0CF021EA000199400EFA61
:10062C0003FE22EA0E0241EA02005DF804FB0023FD
:10063C00EEE70000074AD36823F4E0631B041B0CAD
:10064C00000200F4E060034343F0BF6343F4003363
:10065C00D360704700ED00E010B50446054BD86838
:10066C00C0F30220FFF7C6FF01462046FFF7AEFF9E
:10067C0010BD00BF00ED00E00138B0F1807F0BD25F
:10068C004FF0E0235861054AF02182F82310002036
:10069C00986107221A6170470120704700ED00E055
:1006AC0082B0084B1B68084AA2FB03235B0A00FBC1
:1006BC0003F3019300BF019B5A1E0192002BF9D149
:1006CC0002B0704700000020D34D6210002800F0EB
:1006DC00F18170B582B00446036813F0010F2CD081
:1006EC00994B5B6803F00C03042B1DD0964B5B6895
:1006FC0003F00C03082B12D06368B3F5803F41D094
:10070C00002B55D103F1804303F504331A6822F40E
:10071C0080321A601A6822F480221A6037E08A4B01
:10072C005B6813F4803FE7D0874B1B6813F4003FE2
:10073C0003D06368002B00F0BF81236813F0020F15
:10074C0075D0814B5B6813F00C0F5FD07E4B5B68F0
:10075C0003F00C03082B54D02369002B00F08A8083
:10076C007A4B01221A60FFF717FF0546764B1B6880
:10077C0013F0020F75D1FFF70FFF401B0228F5D9BC
:10078C0003209EE1704A136843F48033136063685E
:10079C0043B3FFF701FF05466B4B1B6813F4003F97
:1007AC00CBD1FFF7F9FE401B6428F5D9032088E173
:1007BC00B3F5A02F09D0644B1A6822F480321A606A
:1007CC001A6822F480221A60E1E703F18043A3F552
:1007DC003C331A6842F480221A601A6842F4803260
:1007EC001A60D4E7FFF7D8FE0546574B1B6813F485
:1007FC00003FA2D0FFF7D0FE401B6428F5D90320A0
:10080C005FE1514B5B6813F4803FA5D14E4B1B68E5
:10081C0013F0020F03D02369012B40F04F814A4A99
:10082C00136823F0F803616943EAC103136023687A
:10083C0013F0080F33D0A369002B5CD0434B01227B
:10084C00C3F88024FFF7A8FE05463F4B5B6A13F004
:10085C00020F21D1FFF7A0FE401B0228F5D903207F
:10086C002FE1394A136823F0F803616943EAC103A5
:10087C001360DCE7354B00221A60FFF78DFE05464E
:10088C00314B1B6813F0020FD1D0FFF785FE401BD4
:10089C000228F5D9032014E10120FFF701FF23689A
:1008AC0013F0040F00F09680274BDB6913F0805F88
:1008BC0034D1254BDA6942F08052DA61DB6903F0FE
:1008CC0080530193019B0125214B1B6813F4807FFE
:1008DC0026D0E368012B3DD0002B53D103F180438C
:1008EC0003F504331A6A22F001021A621A6A22F022
:1008FC0004021A6233E0154B0022C3F88024FFF780
:10090C004BFE0546104B5B6A13F0020FC7D0FFF786
:10091C0043FE401B0228F5D90320D2E00025D3E783
:10092C000B4A136843F480731360FFF735FE0646D9
:10093C00074B1B6813F4807FCBD1FFF72DFE801B78
:10094C006428F5D90320BCE00010024000004242AC
:10095C00007000405F4A136A43F001031362E368BE
:10096C0033B3FFF719FE06465A4B1B6A13F0020FFE
:10097C002FD1FFF711FE801B41F288339842F3D937
:10098C0003209EE0052B09D0524B1A6A22F001027B
:10099C001A621A6A22F004021A62E0E74D4B1A6AD4
:1009AC0042F004021A621A6A42F001021A62D6E795
:1009BC00FFF7F2FD0646474B1B6A13F0020F08D0F7
:1009CC00FFF7EAFD801B41F288339842F3D90320EC
:1009DC0077E0E5B9E369002B72D03E4A526802F029
:1009EC000C02082A56D0022B17D03B4B00221A6659
:1009FC00FFF7D2FD0446374B1B6813F0007F47D03E
:100A0C00FFF7CAFD001B0228F5D9032059E0314A33
:100A1C00D36923F08053D361DCE72F4B00221A6695
:100A2C00FFF7BAFD05462B4B1B6813F0007F06D071
:100A3C00FFF7B2FD401B0228F5D9032041E0236AE1
:100A4C00B3F5803F1AD023494B6823F47413226A00
:100A5C00606A024313434B601F4B01221A66FFF777
:100A6C009BFD04461B4B1B6813F0007F0ED1FFF758
:100A7C0093FD001B0228F5D9032022E0154A536888
:100A8C0023F40033A1680B435360DCE7002018E02B
:100A9C00002016E0012B16D00E4B5B6803F480315E
:100AAC00226A914211D103F47013626A93420ED1FF
:100ABC00002006E001207047012002E0012000E048
:100ACC00002002B070BD0120FBE70120F9E70120F6
:100ADC00F7E700BF00100240000042420F4B5B687A
:100AEC0003F00C02082A01D00D487047C3F383426F
:100AFC000C49885C13F4803F0BD0084B5B68C3F344
:100B0C004043094AD35C064A02FB00F0B0FBF3F009
:100B1C007047064B03FB00F0704700BF001002400B
:100B2C0000127A00780D0008740D000800093D00D1
:100B3C00002800F0A08070B50D460446524B1B688F
:100B4C0003F007038B420BD24F4A136823F00703C1
:100B5C000B431360136803F007038B4240F08D8046
:100B6C00236813F0020F17D013F0040F04D0474A78
:100B7C00536843F4E0635360236813F0080F04D008
:100B8C00424A536843F460535360404A536823F01D
:100B9C00F003A1680B435360236813F0010F31D0AD
:100BAC006368012B20D0022B25D0384A126812F032
:100BBC00020F64D035494A6822F0030213434B609C
:100BCC00FFF7EAFC0646314B5B6803F00C036268E6
:100BDC00B3EB820F16D0FFF7DFFC801B41F288339A
:100BEC009842F0D9032045E0284A126812F4003FDD
:100BFC00E0D101203EE0254A126812F0007FD9D1E5
:100C0C00012037E0204B1B6803F00703AB420AD9E5
:100C1C001D4A136823F007032B431360136803F07A
:100C2C000703AB422DD1236813F0040F06D0174AEB
:100C3C00536823F4E063E1680B435360236813F0BB
:100C4C00080F07D0114A536823F46053216943EA13
:100C5C00C1035360FFF742FF0C4B5B68C3F30313F4
:100C6C000B4AD35CD8400B4B18600B4B1868FFF742
:100C7C004FFC002070BD012070470120FAE70120D5
:100C8C00F8E70120F6E700BF002002400010024008
:100C9C00640D00080000002008000020FFF736FC5F
:100CAC000B480C490C4A002302E0D458C4500433BE
:100CBC00C4188C42F9D3094A094C002301E0136093
:100CCC000432A242FBD300F017F8FFF7B1FB7047D8
:100CDC00000000200C000020900D00080C000020EB
:100CEC0044000020FEE703460244934200D17047C3
:100CFC0003F8011BF9E7000070B500260C4D0D4CF4
:100D0C00641BA410A64209D100F01AF800260A4D63
:100D1C000A4C641BA410A64205D170BD55F8043BC7
:100D2C0098470136EEE755F8043B98470136F2E751
:100D3C00880D0008880D0008880D00088C0D00082F
:100D4C00F8B500BFF8BC08BC9E467047F8B500BFAC
:080D5C00F8BC08BC9E4670477C
:100D64000000000000000000010203040607080957
:100D74000102000002030405060708090A0B0C0D12
:040D84000E0F10102E
:040D8800310100082D
:040D8C000D0100084D
:0C0D90000024F40001000000100000002E
:0400000508000CA93A
:00000001FF
